:100000000C942A000C943F000C943F000C943F0089
:100010000C943F000C943F000C943F000C943F0064
:100020000C943F000C943F000C943F000C943F0054
:100030000C943F000C943F000C943F000C943F0044
:100040000C943F000C943F000C943F000C943F0034
:100050000C943F0011241FBECFE5D8E0DEBFCDBF1A
:1000600010E0A0E6B0E0E0E9FAE002C005900D92F1
:10007000A23AB107D9F70E9441000C9446050C94AE
:100080000000CF93DF931F92CDB7DEB70E948103AC
:100090000E94B5018FEF898310E000E0FF24F39404
:1000A00060E0CE0101960E94B9038981833429F46E
:1000B00060E081E00E9481001DC0823721F41F3082
:1000C000B1F01F5F17C08C3621F4112391F011504D
:1000D00011C0853711F0843611F40F250BC08F3F06
:1000E00049F060E08AE890E00E94520303C010E00B
:1000F00001C01FE040E0612F802F90E00E94650367
:10010000CFCF6F927F928F929F92AF92BF92CF92FA
:10011000DF92EF92FF920F931F93CF93DF93782E8E
:10012000E62EF12C2AE1629FC0011124FC01E05A65
:10013000FF4F4F0184899589C688D788C08DD18D9E
:100140008E01007F112724E0169507952A95E1F787
:10015000CF70DD27BC016F707727807F992740E043
:1001600050E034E0969587953A95E1F70E94710446
:10017000B6016F707727C601807F992740E050E075
:10018000E4E096958795EA95E1F70E94710440E0D6
:1001900050E0BE01C8010E947104F4018281938184
:1001A00088309105B9F5B12CF2E08F0E911C8DE0ED
:1001B0008E9D60018F9DD00C1124E72CF12C8B2D8E
:1001C00090E0F401208131818217930700F5F60158
:1001D000E80FF91FEE0FFF1FEC59FF4F808191814F
:1001E000A7010B2C02C0559547950A94E2F7417080
:1001F0005527BC016F707727807F9927B4E09695CB
:100200008795BA95E1F70E947104B394D8CFE12C99
:10021000F12C89C0049709F083C0612CF2E08F0EA5
:10022000911C8DE08E9D60018F9DD00C1124A72C18
:10023000B12C862D90E0F401208131818217930743
:1002400008F50496F601E80FF91FEE0FFF1FEC59B1
:10025000FF4F20813181A50102C0559547958A95B0
:10026000E2F741705527B9016F707727C901807F88
:100270009927E4E096958795EA95E1F70E94710445
:100280006394D7CF41E050E0BE01C8010E947104E1
:100290008FE697E10197F1F700C0000040E050E0E1
:1002A000BE01C8010E947104912C2AE12E9DC0015B
:1002B0002F9D900D1124FC01EE59FF4F6F018DE031
:1002C0008E9D50018F9DB00C1124E72CF12C892DAF
:1002D00090E0F601208131818217930708F097CFD3
:1002E000F501E80FF91FEE0FFF1FE459FF4F808162
:1002F0009181A701092C02C0559547950A94E2F710
:1003000041705527BC016F707727807F992724E0C3
:10031000969587952A95E1F70E9471049394D7CF1B
:10032000EE24E394F12C41E050E0BE01C8010E94AC
:1003300071048FE697E10197F1F700C0000040E0FB
:1003400050E0BE01C8010E947104C701DF91CF9146
:100350001F910F91FF90EF90DF90CF90BF90AF90E3
:100360009F908F907F906F900895CF93DF93C0E020
:1003700020916200309163008C2F90E082179307E8
:1003800098F4880F991FFC012430310519F4E459C1
:10039000FF4F02C0EC59FF4F61E070E08081918116
:1003A0000E94CB04CF5FE4CFC4E7D0E061E070E00F
:1003B000899199910E94CB0420E0CA37D207B1F706
:1003C0008FEF99EF20E0815090402040E1F700C08E
:1003D0000000809162009091630060E0049711F446
:1003E00088E201C088E30E9481008FE99FE00197C5
:1003F000F1F700C0000060E08FE00E9481008FE90B
:100400009FE00197F1F700C0000060E081E00E94EA
:1004100081008FE99FE00197F1F700C0000060E0E4
:1004200086E00E9481008FE99FE00197F1F700C00C
:10043000000080E090E0DF91CF9108956F927F926D
:100440008F929F92AF92BF92CF92DF92EF92FF92E4
:100450000F931F93CF93DF93782EE62EF12C2AE192
:10046000629FC0011124FC01E05AFF4F4F018489B3
:100470009589C688D788C08DD18D8E01007F1127C0
:1004800024E0169507952A95E1F7CF70DD27BC018A
:100490006F707727807F992741E050E034E0969590
:1004A00087953A95E1F70E947104B6016F7077273E
:1004B000C601807F992740E050E0E4E0969587955B
:1004C000EA95E1F70E94710440E050E0BE01C801E6
:1004D0000E947104F4018281938188309105B9F5FD
:1004E000B12CF2E08F0E911C8DE08E9D60018F9DEE
:1004F000D00C1124E72CF12C8B2D90E0F4012081FD
:1005000031818217930700F5F601E80FF91FEE0F0E
:10051000FF1FEC59FF4F80819181A7010B2C02C076
:10052000559547950A94E2F741705527BC016F70C5
:100530007727807F9927B4E096958795BA95E1F75C
:100540000E947104B394D8CFE12CF12C89C0049798
:1005500009F083C0612CF2E08F0E911C8DE08E9D1E
:1005600060018F9DD00C1124A72CB12C862D90E01A
:10057000F401208131818217930708F50496F60172
:10058000E80FF91FEE0FFF1FEC59FF4F208131815B
:10059000A50102C0559547958A95E2F74170552708
:1005A000B9016F707727C901807F9927E4E096959C
:1005B0008795EA95E1F70E9471046394D7CF41E0F3
:1005C00050E0BE01C8010E9471048FE697E10197D7
:1005D000F1F700C0000040E050E0BE01C8010E94F9
:1005E0007104912C2AE12E9DC0012F9D900D1124A4
:1005F000FC01EE59FF4F6F018DE08E9D50018F9DE4
:10060000B00C1124E72CF12C892D90E0F60120810B
:1006100031818217930708F097CFF501E80FF91F92
:10062000EE0FFF1FE459FF4F80819181A701092C34
:1006300002C0559547950A94E2F741705527BC01D1
:100640006F707727807F992724E0969587952A9564
:10065000E1F70E9471049394D7CFEE24E394F12C38
:1006600041E050E0BE01C8010E9471048FE697E1AD
:100670000197F1F700C0000040E050E0BE01C80162
:100680000E947104C701DF91CF911F910F91FF90DC
:10069000EF90DF90CF90BF90AF909F908F907F9022
:1006A0006F9008951F93CF93DF93162FEC0180E096
:1006B00090E02991222329F0612F822F0E941E02AF
:1006C000F8CFDF91CF911F9108959C01862F68325A
:1006D00078F4423080F42230310580F4232B09F085
:1006E000805C642F80680E94810080E090E0089523
:1006F00083E090E0089585E090E0089582E090E046
:100700000895EF92FF920F931F93CF93DF93CAE761
:10071000D0E002E810E07E0160E070E089919991FC
:100720000E94CB0460E070E0F701808191810E941B
:10073000080561E070E08E819F810E94CB048E816C
:100740009F81BC016F70772741E050E024E09695CF
:1007500087952A95E1F70E9471040C171D07D9F6B9
:1007600080E090E0DF91CF911F910F91FF90EF908B
:1007700008952F923F924F925F926F927F928F9245
:100780009F92AF92BF92CF92DF92EF92FF920F9320
:100790001F93CF93DF931F92CDB7DEB74C0181E05B
:1007A00089838FEFF4018083462E512CC201A4E08F
:1007B000880F991FAA95E1F79C012E573F4F6901B9
:1007C000FC01E658FF4F1F01E12CF12CB3E0440C73
:1007D000551CBA95E1F7F60180819181BC016F70DB
:1007E000772740E050E0F4E096958795FA95E1F799
:1007F0000E947104310100E010E0F30181919191B8
:100800003F01BC016F707727AE014F5F5F4FE4E09F
:1008100096958795EA95E1F70E94A9045C01898184
:10082000811129C0F801EE0FFF1FEE0FFF1FEE56DA
:10083000FF4FEE0DFF1D8081F4018083040D151D17
:10084000000F111F06581F4F8981811112C0F80136
:1008500080819181BC016F707727AE014F5F5F4F40
:1008600034E0969587953A95E1F70E94A9045C01DA
:10087000EBCF11E007C00F5F1F4F0430110509F0E7
:10088000BCCF10E0F601819191916F01BC016F70B6
:10089000772741E050E024E0969587952A95E1F787
:1008A0000E947104111108C0FFEFEF1AFF0A24E043
:1008B000E216F10409F08FCFC5010F90DF91CF91BF
:1008C0001F910F91FF90EF90DF90CF90BF90AF906E
:1008D0009F908F907F906F905F904F903F902F9060
:1008E00008958430910548F46830710548F4423029
:1008F000510548F0A6E0B0E008C0A3E0B0E005C0B4
:10090000A2E0B0E002C0A0E0B0E09C013327C90142
:10091000880F991F280F391FE9E3F0E0E21BF30B62
:100920004130510541F4828101C0440F6A95EAF7D4
:10093000482B42830CC0452B51F4828121E030E0EA
:1009400001C0220F6A95EAF7209528232283CD0162
:1009500008959C0181E090E02430310538F468303E
:10096000710520F44115510509F080E03327F901A4
:10097000EE0FFF1F2E0F3F1FE9E3F0E0E21BF30B2A
:10098000208130E002C0359527956A95E2F7217005
:10099000FA0120830895582F5F70807F99279C016A
:1009A000E4E036952795EA95E1F7583040F4243095
:1009B00048F46230710548F084E090E008C082E0BD
:1009C00090E005C083E090E002C080E090E0F90193
:1009D000EE0FFF1F2E0F3F1FE9E3F0E0E21BF30BCA
:1009E0006130710541F4218101C0660F5A95EAF723
:1009F000622B61830895672B51F4418121E030E03F
:100A000001C0220F5A95EAF72095242321830895E7
:100A1000482F4F70807F99279C01E4E036952795F9
:100A2000EA95E1F7483040F4243048F46430710529
:100A300048F085E090E008C082E090E005C083E0E7
:100A400090E002C080E090E0F901EE0FFF1F2E0F52
:100A50003F1FE9E3F0E0E21BF30B6115710551F470
:100A6000528121E030E001C0220F4A95EAF7252BA0
:100A7000228308956130710541F4228101C0660F1F
:100A80004A95EAF76095622362830895F894FFCF50
:100A90000000040000000100020003000400050043
:100AA00006000700100011001200200021002200A3
:100AB00023002400250026002700596F75737365F5
:100AC000660030303030307530306C307230436416
:020AD0003030C4
:00000001FF
