:100000000C942A000C9434000C9434000C943400AA
:100010000C9434000C9434000C9434000C94340090
:100020000C9434000C9434000C9434000C94340080
:100030000C9434000C9434000C9434000C94340070
:100040000C9434000C9434000C9434000C94340060
:100050000C94340011241FBECFE5D8E0DEBFCDBF25
:100060000E9436000C9454000C940000D098D89A4A
:10007000A09AA19AA29AA39A15BA90E080E0C89992
:1000800004C0C89BFECF019685BB8F30910511F44B
:1000900090E080E02FE738E341E0215030404040DD
:0C00A000E1F700C00000EBCFF894FFCFA8
:00000001FF
