:100000000C942A000C9434000C9434000C943400AA
:100010000C9434000C9434000C9434000C94340090
:100020000C9434000C9434000C9434000C94340080
:100030000C9434000C9434000C9434000C94340070
:100040000C9434000C9434000C9434000C94340060
:100050000C94340011241FBECFE5D8E0DEBFCDBF25
:100060000E9436000C944C000C940000A09AA89AB0
:100070002FEF84E39CE0215080409040E1F700C0E6
:100080000000A8982FEF84E39CE02150804090402E
:0C009000E1F700C00000EBCFF894FFCFB8
:00000001FF
